{"contracts/Escrow.sol":{"Escrow":{"abi":[{"inputs":[{"internalType":"address payable","name":"_seller","type":"address"},{"internalType":"address payable","name":"_escrowAgent","type":"address"}],"stateMutability":"payable","type":"constructor"},{"anonymous":false,"inputs":[{"indexed":false,"internalType":"uint256","name":"when","type":"uint256"}],"name":"Cancelled","type":"event"},{"anonymous":false,"inputs":[{"indexed":false,"internalType":"uint256","name":"amount","type":"uint256"},{"indexed":false,"internalType":"uint256","name":"when","type":"uint256"}],"name":"Claimed","type":"event"},{"anonymous":false,"inputs":[{"indexed":false,"internalType":"uint256","name":"when","type":"uint256"}],"name":"InEscrow","type":"event"},{"anonymous":false,"inputs":[{"indexed":false,"internalType":"uint256","name":"when","type":"uint256"}],"name":"ItemReceived","type":"event"},{"stateMutability":"nonpayable","type":"fallback"},{"inputs":[],"name":"amount","outputs":[{"internalType":"uint256","name":"","type":"uint256"}],"stateMutability":"view","type":"function"},{"inputs":[],"name":"buyer","outputs":[{"internalType":"address payable","name":"","type":"address"}],"stateMutability":"view","type":"function"},{"inputs":[],"name":"buyerReceivedItem","outputs":[{"internalType":"bool","name":"","type":"bool"}],"stateMutability":"view","type":"function"},{"inputs":[],"name":"cancel","outputs":[],"stateMutability":"nonpayable","type":"function"},{"inputs":[],"name":"claim","outputs":[],"stateMutability":"nonpayable","type":"function"},{"inputs":[],"name":"confirmItemReceived","outputs":[],"stateMutability":"nonpayable","type":"function"},{"inputs":[],"name":"lock","outputs":[],"stateMutability":"nonpayable","type":"function"},{"inputs":[],"name":"seller","outputs":[{"internalType":"address payable","name":"","type":"address"}],"stateMutability":"view","type":"function"},{"inputs":[],"name":"state","outputs":[{"internalType":"enum Escrow.State","name":"","type":"uint8"}],"stateMutability":"view","type":"function"}],"evm":{"bytecode":{"linkReferences":{},"object":"608060405260405161094838038061094883398101604081905261002291610088565b600080546001600160a01b039384166001600160a01b0319918216179091556001805482163317905560028054929093169116179055346003556004805461ffff191690556100bb565b80516001600160a01b038116811461008357600080fd5b919050565b6000806040838503121561009b57600080fd5b6100a48361006c565b91506100b26020840161006c565b90509250929050565b61087e806100ca6000396000f3fe608060405234801561001057600080fd5b50600436106100935760003560e01c80637150d8ae116100665780637150d8ae14610175578063aa8c217c14610188578063c19d93fb1461019f578063ea8a1af0146101be578063f83d08ba146101c657610093565b806308551a53146101165780630c4b2ce114610146578063207ac3b1146101505780634e71d92d1461016d575b60405162461bcd60e51b815260206004820152604760248201527f66616c6c6261636b2066756e6374696f6e2063616c6c65643a2064697265637460448201527f207061796d656e74206e6f74206163636570746564206279207468697320636f606482015266373a3930b1ba1760c91b608482015260a4015b60405180910390fd5b600054610129906001600160a01b031681565b6040516001600160a01b0390911681526020015b60405180910390f35b61014e6101ce565b005b60045461015d9060ff1681565b604051901515815260200161013d565b61014e6102c6565b600154610129906001600160a01b031681565b61019160035481565b60405190815260200161013d565b6004546101b190610100900460ff1681565b60405161013d919061078e565b61014e610453565b61014e6105fc565b6001546001600160a01b031633146101f85760405162461bcd60e51b815260040161010d906107b6565b6001600454610100900460ff16600381111561021657610216610778565b1461027d5760405162461bcd60e51b815260206004820152603160248201527f657363726f77206973206e6f742061637469766520796574202d206861766520604482015270796f75206c6f636b65642066756e64733f60781b606482015260840161010d565b6004805460ff191660011790556040517f01e74d1f4f418e68629246efc4a29d98199e9c9b9c3653bdbfee74d2ad4ac6a3906102bc9042815260200190565b60405180910390a1565b6000546001600160a01b0316331461032f5760405162461bcd60e51b815260206004820152602660248201527f6f6e6c79207468652053656c6c65722063616e2063616c6c20746869732066756044820152653731ba34b7b760d11b606482015260840161010d565b6001600454610100900460ff16600381111561034d5761034d610778565b1461039a5760405162461bcd60e51b815260206004820152601760248201527f6e6f742079657420696e20657363726f77207374617465000000000000000000604482015260640161010d565b60045460ff166103fc5760405162461bcd60e51b815260206004820152602760248201527f627579657220686173206e6f7420636f6e6669726d65642072656365697074206044820152666f66206974656d60c81b606482015260840161010d565b6104046106d0565b61040c61072c565b6004805461ff001916610200179055600354604080519182524260208301527fc83b5086ce94ec8d5a88a9f5fea4b18a522bb238ed0d2d8abd959549a80c16b891016102bc565b6000546001600160a01b031633148061047657506001546001600160a01b031633145b6104da5760405162461bcd60e51b815260206004820152602f60248201527f6f6e6c7920746865204275796572206f722053656c6c65722063616e2063616c60448201526e36103a3434b990333ab731ba34b7b760891b606482015260840161010d565b6000600454610100900460ff1660038111156104f8576104f8610778565b148061053457506001600454610100900460ff16600381111561051d5761051d610778565b14801561053457506000546001600160a01b031633145b6105805760405162461bcd60e51b815260206004820152601a60248201527f657363726f772063616e6e6f742062652063616e63656c6c6564000000000000604482015260640161010d565b6001546003546040516001600160a01b039092169181156108fc0291906000818181858888f193505050501580156105bc573d6000803e3d6000fd5b506004805461ff0019166103001790556040514281527fc41d93b8bfbf9fd7cf5bfe271fd649ab6a6fec0ea101c23b82a2a28eca2533a9906020016102bc565b6001546001600160a01b031633146106265760405162461bcd60e51b815260040161010d906107b6565b6000600454610100900460ff16600381111561064457610644610778565b146106915760405162461bcd60e51b815260206004820152601860248201527f657363726f7720697320616c7265616479206c6f636b65640000000000000000604482015260640161010d565b6004805461ff0019166101001790556040514281527f459a51414187c5fdcdbb3ca4c8e95a3bb4601dde82a52e6ba6ce900e3d0ff833906020016102bc565b6000606460035460636106e391906107fb565b6106ed9190610826565b600080546040519293506001600160a01b03169183156108fc0291849190818181858888f19350505050158015610728573d6000803e3d6000fd5b5050565b6000606460035461073d9190610826565b6002546040519192506001600160a01b03169082156108fc029083906000818181858888f19350505050158015610728573d6000803e3d6000fd5b634e487b7160e01b600052602160045260246000fd5b60208101600483106107b057634e487b7160e01b600052602160045260246000fd5b91905290565b60208082526025908201527f6f6e6c79207468652042757965722063616e2063616c6c20746869732066756e60408201526431ba34b7b760d91b606082015260800190565b808202811582820484141761082057634e487b7160e01b600052601160045260246000fd5b92915050565b60008261084357634e487b7160e01b600052601260045260246000fd5b50049056fea264697066735822122082008adb013657eee0451fa021de72f0c7a5f45a77b5a64f3a592ff93d2fd09364736f6c63430008140033","opcodes":"PUSH1 0x80 PUSH1 0x40 MSTORE PUSH1 0x40 MLOAD PUSH2 0x948 CODESIZE SUB DUP1 PUSH2 0x948 DUP4 CODECOPY DUP2 ADD PUSH1 0x40 DUP2 SWAP1 MSTORE PUSH2 0x22 SWAP2 PUSH2 0x88 JUMP JUMPDEST PUSH1 0x0 DUP1 SLOAD PUSH1 0x1 PUSH1 0x1 PUSH1 0xA0 SHL SUB SWAP4 DUP5 AND PUSH1 0x1 PUSH1 0x1 PUSH1 0xA0 SHL SUB NOT SWAP2 DUP3 AND OR SWAP1 SWAP2 SSTORE PUSH1 0x1 DUP1 SLOAD DUP3 AND CALLER OR SWAP1 SSTORE PUSH1 0x2 DUP1 SLOAD SWAP3 SWAP1 SWAP4 AND SWAP2 AND OR SWAP1 SSTORE CALLVALUE PUSH1 0x3 SSTORE PUSH1 0x4 DUP1 SLOAD PUSH2 0xFFFF NOT AND SWAP1 SSTORE PUSH2 0xBB JUMP JUMPDEST DUP1 MLOAD PUSH1 0x1 PUSH1 0x1 PUSH1 0xA0 SHL SUB DUP2 AND DUP2 EQ PUSH2 0x83 JUMPI PUSH1 0x0 DUP1 REVERT JUMPDEST SWAP2 SWAP1 POP JUMP JUMPDEST PUSH1 0x0 DUP1 PUSH1 0x40 DUP4 DUP6 SUB SLT ISZERO PUSH2 0x9B JUMPI PUSH1 0x0 DUP1 REVERT JUMPDEST PUSH2 0xA4 DUP4 PUSH2 0x6C JUMP JUMPDEST SWAP2 POP PUSH2 0xB2 PUSH1 0x20 DUP5 ADD PUSH2 0x6C JUMP JUMPDEST SWAP1 POP SWAP3 POP SWAP3 SWAP1 POP JUMP JUMPDEST PUSH2 0x87E DUP1 PUSH2 0xCA PUSH1 0x0 CODECOPY PUSH1 0x0 RETURN INVALID PUSH1 0x80 PUSH1 0x40 MSTORE CALLVALUE DUP1 ISZERO PUSH2 0x10 JUMPI PUSH1 0x0 DUP1 REVERT JUMPDEST POP PUSH1 0x4 CALLDATASIZE LT PUSH2 0x93 JUMPI PUSH1 0x0 CALLDATALOAD PUSH1 0xE0 SHR DUP1 PUSH4 0x7150D8AE GT PUSH2 0x66 JUMPI DUP1 PUSH4 0x7150D8AE EQ PUSH2 0x175 JUMPI DUP1 PUSH4 0xAA8C217C EQ PUSH2 0x188 JUMPI DUP1 PUSH4 0xC19D93FB EQ PUSH2 0x19F JUMPI DUP1 PUSH4 0xEA8A1AF0 EQ PUSH2 0x1BE JUMPI DUP1 PUSH4 0xF83D08BA EQ PUSH2 0x1C6 JUMPI PUSH2 0x93 JUMP JUMPDEST DUP1 PUSH4 0x8551A53 EQ PUSH2 0x116 JUMPI DUP1 PUSH4 0xC4B2CE1 EQ PUSH2 0x146 JUMPI DUP1 PUSH4 0x207AC3B1 EQ PUSH2 0x150 JUMPI DUP1 PUSH4 0x4E71D92D EQ PUSH2 0x16D JUMPI JUMPDEST PUSH1 0x40 MLOAD PUSH3 0x461BCD PUSH1 0xE5 SHL DUP2 MSTORE PUSH1 0x20 PUSH1 0x4 DUP3 ADD MSTORE PUSH1 0x47 PUSH1 0x24 DUP3 ADD MSTORE PUSH32 0x66616C6C6261636B2066756E6374696F6E2063616C6C65643A20646972656374 PUSH1 0x44 DUP3 ADD MSTORE PUSH32 0x207061796D656E74206E6F74206163636570746564206279207468697320636F PUSH1 0x64 DUP3 ADD MSTORE PUSH7 0x373A3930B1BA17 PUSH1 0xC9 SHL PUSH1 0x84 DUP3 ADD MSTORE PUSH1 0xA4 ADD JUMPDEST PUSH1 0x40 MLOAD DUP1 SWAP2 SUB SWAP1 REVERT JUMPDEST PUSH1 0x0 SLOAD PUSH2 0x129 SWAP1 PUSH1 0x1 PUSH1 0x1 PUSH1 0xA0 SHL SUB AND DUP2 JUMP JUMPDEST PUSH1 0x40 MLOAD PUSH1 0x1 PUSH1 0x1 PUSH1 0xA0 SHL SUB SWAP1 SWAP2 AND DUP2 MSTORE PUSH1 0x20 ADD JUMPDEST PUSH1 0x40 MLOAD DUP1 SWAP2 SUB SWAP1 RETURN JUMPDEST PUSH2 0x14E PUSH2 0x1CE JUMP JUMPDEST STOP JUMPDEST PUSH1 0x4 SLOAD PUSH2 0x15D SWAP1 PUSH1 0xFF AND DUP2 JUMP JUMPDEST PUSH1 0x40 MLOAD SWAP1 ISZERO ISZERO DUP2 MSTORE PUSH1 0x20 ADD PUSH2 0x13D JUMP JUMPDEST PUSH2 0x14E PUSH2 0x2C6 JUMP JUMPDEST PUSH1 0x1 SLOAD PUSH2 0x129 SWAP1 PUSH1 0x1 PUSH1 0x1 PUSH1 0xA0 SHL SUB AND DUP2 JUMP JUMPDEST PUSH2 0x191 PUSH1 0x3 SLOAD DUP2 JUMP JUMPDEST PUSH1 0x40 MLOAD SWAP1 DUP2 MSTORE PUSH1 0x20 ADD PUSH2 0x13D JUMP JUMPDEST PUSH1 0x4 SLOAD PUSH2 0x1B1 SWAP1 PUSH2 0x100 SWAP1 DIV PUSH1 0xFF AND DUP2 JUMP JUMPDEST PUSH1 0x40 MLOAD PUSH2 0x13D SWAP2 SWAP1 PUSH2 0x78E JUMP JUMPDEST PUSH2 0x14E PUSH2 0x453 JUMP JUMPDEST PUSH2 0x14E PUSH2 0x5FC JUMP JUMPDEST PUSH1 0x1 SLOAD PUSH1 0x1 PUSH1 0x1 PUSH1 0xA0 SHL SUB AND CALLER EQ PUSH2 0x1F8 JUMPI PUSH1 0x40 MLOAD PUSH3 0x461BCD PUSH1 0xE5 SHL DUP2 MSTORE PUSH1 0x4 ADD PUSH2 0x10D SWAP1 PUSH2 0x7B6 JUMP JUMPDEST PUSH1 0x1 PUSH1 0x4 SLOAD PUSH2 0x100 SWAP1 DIV PUSH1 0xFF AND PUSH1 0x3 DUP2 GT ISZERO PUSH2 0x216 JUMPI PUSH2 0x216 PUSH2 0x778 JUMP JUMPDEST EQ PUSH2 0x27D JUMPI PUSH1 0x40 MLOAD PUSH3 0x461BCD PUSH1 0xE5 SHL DUP2 MSTORE PUSH1 0x20 PUSH1 0x4 DUP3 ADD MSTORE PUSH1 0x31 PUSH1 0x24 DUP3 ADD MSTORE PUSH32 0x657363726F77206973206E6F742061637469766520796574202D206861766520 PUSH1 0x44 DUP3 ADD MSTORE PUSH17 0x796F75206C6F636B65642066756E64733F PUSH1 0x78 SHL PUSH1 0x64 DUP3 ADD MSTORE PUSH1 0x84 ADD PUSH2 0x10D JUMP JUMPDEST PUSH1 0x4 DUP1 SLOAD PUSH1 0xFF NOT AND PUSH1 0x1 OR SWAP1 SSTORE PUSH1 0x40 MLOAD PUSH32 0x1E74D1F4F418E68629246EFC4A29D98199E9C9B9C3653BDBFEE74D2AD4AC6A3 SWAP1 PUSH2 0x2BC SWAP1 TIMESTAMP DUP2 MSTORE PUSH1 0x20 ADD SWAP1 JUMP JUMPDEST PUSH1 0x40 MLOAD DUP1 SWAP2 SUB SWAP1 LOG1 JUMP JUMPDEST PUSH1 0x0 SLOAD PUSH1 0x1 PUSH1 0x1 PUSH1 0xA0 SHL SUB AND CALLER EQ PUSH2 0x32F JUMPI PUSH1 0x40 MLOAD PUSH3 0x461BCD PUSH1 0xE5 SHL DUP2 MSTORE PUSH1 0x20 PUSH1 0x4 DUP3 ADD MSTORE PUSH1 0x26 PUSH1 0x24 DUP3 ADD MSTORE PUSH32 0x6F6E6C79207468652053656C6C65722063616E2063616C6C2074686973206675 PUSH1 0x44 DUP3 ADD MSTORE PUSH6 0x3731BA34B7B7 PUSH1 0xD1 SHL PUSH1 0x64 DUP3 ADD MSTORE PUSH1 0x84 ADD PUSH2 0x10D JUMP JUMPDEST PUSH1 0x1 PUSH1 0x4 SLOAD PUSH2 0x100 SWAP1 DIV PUSH1 0xFF AND PUSH1 0x3 DUP2 GT ISZERO PUSH2 0x34D JUMPI PUSH2 0x34D PUSH2 0x778 JUMP JUMPDEST EQ PUSH2 0x39A JUMPI PUSH1 0x40 MLOAD PUSH3 0x461BCD PUSH1 0xE5 SHL DUP2 MSTORE PUSH1 0x20 PUSH1 0x4 DUP3 ADD MSTORE PUSH1 0x17 PUSH1 0x24 DUP3 ADD MSTORE PUSH32 0x6E6F742079657420696E20657363726F77207374617465000000000000000000 PUSH1 0x44 DUP3 ADD MSTORE PUSH1 0x64 ADD PUSH2 0x10D JUMP JUMPDEST PUSH1 0x4 SLOAD PUSH1 0xFF AND PUSH2 0x3FC JUMPI PUSH1 0x40 MLOAD PUSH3 0x461BCD PUSH1 0xE5 SHL DUP2 MSTORE PUSH1 0x20 PUSH1 0x4 DUP3 ADD MSTORE PUSH1 0x27 PUSH1 0x24 DUP3 ADD MSTORE PUSH32 0x627579657220686173206E6F7420636F6E6669726D6564207265636569707420 PUSH1 0x44 DUP3 ADD MSTORE PUSH7 0x6F66206974656D PUSH1 0xC8 SHL PUSH1 0x64 DUP3 ADD MSTORE PUSH1 0x84 ADD PUSH2 0x10D JUMP JUMPDEST PUSH2 0x404 PUSH2 0x6D0 JUMP JUMPDEST PUSH2 0x40C PUSH2 0x72C JUMP JUMPDEST PUSH1 0x4 DUP1 SLOAD PUSH2 0xFF00 NOT AND PUSH2 0x200 OR SWAP1 SSTORE PUSH1 0x3 SLOAD PUSH1 0x40 DUP1 MLOAD SWAP2 DUP3 MSTORE TIMESTAMP PUSH1 0x20 DUP4 ADD MSTORE PUSH32 0xC83B5086CE94EC8D5A88A9F5FEA4B18A522BB238ED0D2D8ABD959549A80C16B8 SWAP2 ADD PUSH2 0x2BC JUMP JUMPDEST PUSH1 0x0 SLOAD PUSH1 0x1 PUSH1 0x1 PUSH1 0xA0 SHL SUB AND CALLER EQ DUP1 PUSH2 0x476 JUMPI POP PUSH1 0x1 SLOAD PUSH1 0x1 PUSH1 0x1 PUSH1 0xA0 SHL SUB AND CALLER EQ JUMPDEST PUSH2 0x4DA JUMPI PUSH1 0x40 MLOAD PUSH3 0x461BCD PUSH1 0xE5 SHL DUP2 MSTORE PUSH1 0x20 PUSH1 0x4 DUP3 ADD MSTORE PUSH1 0x2F PUSH1 0x24 DUP3 ADD MSTORE PUSH32 0x6F6E6C7920746865204275796572206F722053656C6C65722063616E2063616C PUSH1 0x44 DUP3 ADD MSTORE PUSH15 0x36103A3434B990333AB731BA34B7B7 PUSH1 0x89 SHL PUSH1 0x64 DUP3 ADD MSTORE PUSH1 0x84 ADD PUSH2 0x10D JUMP JUMPDEST PUSH1 0x0 PUSH1 0x4 SLOAD PUSH2 0x100 SWAP1 DIV PUSH1 0xFF AND PUSH1 0x3 DUP2 GT ISZERO PUSH2 0x4F8 JUMPI PUSH2 0x4F8 PUSH2 0x778 JUMP JUMPDEST EQ DUP1 PUSH2 0x534 JUMPI POP PUSH1 0x1 PUSH1 0x4 SLOAD PUSH2 0x100 SWAP1 DIV PUSH1 0xFF AND PUSH1 0x3 DUP2 GT ISZERO PUSH2 0x51D JUMPI PUSH2 0x51D PUSH2 0x778 JUMP JUMPDEST EQ DUP1 ISZERO PUSH2 0x534 JUMPI POP PUSH1 0x0 SLOAD PUSH1 0x1 PUSH1 0x1 PUSH1 0xA0 SHL SUB AND CALLER EQ JUMPDEST PUSH2 0x580 JUMPI PUSH1 0x40 MLOAD PUSH3 0x461BCD PUSH1 0xE5 SHL DUP2 MSTORE PUSH1 0x20 PUSH1 0x4 DUP3 ADD MSTORE PUSH1 0x1A PUSH1 0x24 DUP3 ADD MSTORE PUSH32 0x657363726F772063616E6E6F742062652063616E63656C6C6564000000000000 PUSH1 0x44 DUP3 ADD MSTORE PUSH1 0x64 ADD PUSH2 0x10D JUMP JUMPDEST PUSH1 0x1 SLOAD PUSH1 0x3 SLOAD PUSH1 0x40 MLOAD PUSH1 0x1 PUSH1 0x1 PUSH1 0xA0 SHL SUB SWAP1 SWAP3 AND SWAP2 DUP2 ISZERO PUSH2 0x8FC MUL SWAP2 SWAP1 PUSH1 0x0 DUP2 DUP2 DUP2 DUP6 DUP9 DUP9 CALL SWAP4 POP POP POP POP ISZERO DUP1 ISZERO PUSH2 0x5BC JUMPI RETURNDATASIZE PUSH1 0x0 DUP1 RETURNDATACOPY RETURNDATASIZE PUSH1 0x0 REVERT JUMPDEST POP PUSH1 0x4 DUP1 SLOAD PUSH2 0xFF00 NOT AND PUSH2 0x300 OR SWAP1 SSTORE PUSH1 0x40 MLOAD TIMESTAMP DUP2 MSTORE PUSH32 0xC41D93B8BFBF9FD7CF5BFE271FD649AB6A6FEC0EA101C23B82A2A28ECA2533A9 SWAP1 PUSH1 0x20 ADD PUSH2 0x2BC JUMP JUMPDEST PUSH1 0x1 SLOAD PUSH1 0x1 PUSH1 0x1 PUSH1 0xA0 SHL SUB AND CALLER EQ PUSH2 0x626 JUMPI PUSH1 0x40 MLOAD PUSH3 0x461BCD PUSH1 0xE5 SHL DUP2 MSTORE PUSH1 0x4 ADD PUSH2 0x10D SWAP1 PUSH2 0x7B6 JUMP JUMPDEST PUSH1 0x0 PUSH1 0x4 SLOAD PUSH2 0x100 SWAP1 DIV PUSH1 0xFF AND PUSH1 0x3 DUP2 GT ISZERO PUSH2 0x644 JUMPI PUSH2 0x644 PUSH2 0x778 JUMP JUMPDEST EQ PUSH2 0x691 JUMPI PUSH1 0x40 MLOAD PUSH3 0x461BCD PUSH1 0xE5 SHL DUP2 MSTORE PUSH1 0x20 PUSH1 0x4 DUP3 ADD MSTORE PUSH1 0x18 PUSH1 0x24 DUP3 ADD MSTORE PUSH32 0x657363726F7720697320616C7265616479206C6F636B65640000000000000000 PUSH1 0x44 DUP3 ADD MSTORE PUSH1 0x64 ADD PUSH2 0x10D JUMP JUMPDEST PUSH1 0x4 DUP1 SLOAD PUSH2 0xFF00 NOT AND PUSH2 0x100 OR SWAP1 SSTORE PUSH1 0x40 MLOAD TIMESTAMP DUP2 MSTORE PUSH32 0x459A51414187C5FDCDBB3CA4C8E95A3BB4601DDE82A52E6BA6CE900E3D0FF833 SWAP1 PUSH1 0x20 ADD PUSH2 0x2BC JUMP JUMPDEST PUSH1 0x0 PUSH1 0x64 PUSH1 0x3 SLOAD PUSH1 0x63 PUSH2 0x6E3 SWAP2 SWAP1 PUSH2 0x7FB JUMP JUMPDEST PUSH2 0x6ED SWAP2 SWAP1 PUSH2 0x826 JUMP JUMPDEST PUSH1 0x0 DUP1 SLOAD PUSH1 0x40 MLOAD SWAP3 SWAP4 POP PUSH1 0x1 PUSH1 0x1 PUSH1 0xA0 SHL SUB AND SWAP2 DUP4 ISZERO PUSH2 0x8FC MUL SWAP2 DUP5 SWAP2 SWAP1 DUP2 DUP2 DUP2 DUP6 DUP9 DUP9 CALL SWAP4 POP POP POP POP ISZERO DUP1 ISZERO PUSH2 0x728 JUMPI RETURNDATASIZE PUSH1 0x0 DUP1 RETURNDATACOPY RETURNDATASIZE PUSH1 0x0 REVERT JUMPDEST POP POP JUMP JUMPDEST PUSH1 0x0 PUSH1 0x64 PUSH1 0x3 SLOAD PUSH2 0x73D SWAP2 SWAP1 PUSH2 0x826 JUMP JUMPDEST PUSH1 0x2 SLOAD PUSH1 0x40 MLOAD SWAP2 SWAP3 POP PUSH1 0x1 PUSH1 0x1 PUSH1 0xA0 SHL SUB AND SWAP1 DUP3 ISZERO PUSH2 0x8FC MUL SWAP1 DUP4 SWAP1 PUSH1 0x0 DUP2 DUP2 DUP2 DUP6 DUP9 DUP9 CALL SWAP4 POP POP POP POP ISZERO DUP1 ISZERO PUSH2 0x728 JUMPI RETURNDATASIZE PUSH1 0x0 DUP1 RETURNDATACOPY RETURNDATASIZE PUSH1 0x0 REVERT JUMPDEST PUSH4 0x4E487B71 PUSH1 0xE0 SHL PUSH1 0x0 MSTORE PUSH1 0x21 PUSH1 0x4 MSTORE PUSH1 0x24 PUSH1 0x0 REVERT JUMPDEST PUSH1 0x20 DUP2 ADD PUSH1 0x4 DUP4 LT PUSH2 0x7B0 JUMPI PUSH4 0x4E487B71 PUSH1 0xE0 SHL PUSH1 0x0 MSTORE PUSH1 0x21 PUSH1 0x4 MSTORE PUSH1 0x24 PUSH1 0x0 REVERT JUMPDEST SWAP2 SWAP1 MSTORE SWAP1 JUMP JUMPDEST PUSH1 0x20 DUP1 DUP3 MSTORE PUSH1 0x25 SWAP1 DUP3 ADD MSTORE PUSH32 0x6F6E6C79207468652042757965722063616E2063616C6C20746869732066756E PUSH1 0x40 DUP3 ADD MSTORE PUSH5 0x31BA34B7B7 PUSH1 0xD9 SHL PUSH1 0x60 DUP3 ADD MSTORE PUSH1 0x80 ADD SWAP1 JUMP JUMPDEST DUP1 DUP3 MUL DUP2 ISZERO DUP3 DUP3 DIV DUP5 EQ OR PUSH2 0x820 JUMPI PUSH4 0x4E487B71 PUSH1 0xE0 SHL PUSH1 0x0 MSTORE PUSH1 0x11 PUSH1 0x4 MSTORE PUSH1 0x24 PUSH1 0x0 REVERT JUMPDEST SWAP3 SWAP2 POP POP JUMP JUMPDEST PUSH1 0x0 DUP3 PUSH2 0x843 JUMPI PUSH4 0x4E487B71 PUSH1 0xE0 SHL PUSH1 0x0 MSTORE PUSH1 0x12 PUSH1 0x4 MSTORE PUSH1 0x24 PUSH1 0x0 REVERT JUMPDEST POP DIV SWAP1 JUMP INVALID LOG2 PUSH5 0x6970667358 0x22 SLT KECCAK256 DUP3 STOP DUP11 0xDB ADD CALLDATASIZE JUMPI 0xEE 0xE0 GASLIMIT 0x1F LOG0 0x21 0xDE PUSH19 0xF0C7A5F45A77B5A64F3A592FF93D2FD0936473 PUSH16 0x6C634300081400330000000000000000 "},"methodIdentifiers":{"amount()":"aa8c217c","buyer()":"7150d8ae","buyerReceivedItem()":"207ac3b1","cancel()":"ea8a1af0","claim()":"4e71d92d","confirmItemReceived()":"0c4b2ce1","lock()":"f83d08ba","seller()":"08551a53","state()":"c19d93fb"}}}}}