{
  "_format": "hh-sol-artifact-1",
  "contractName": "NFTAuth",
  "sourceName": "contracts/NFTAuth.sol",
  "abi": [
    {
      "inputs": [
        {
          "internalType": "string",
          "name": "name_",
          "type": "string"
        },
        {
          "internalType": "string",
          "name": "symbol_",
          "type": "string"
        },
        {
          "internalType": "string",
          "name": "baseURI_",
          "type": "string"
        }
      ],
      "stateMutability": "nonpayable",
      "type": "constructor"
    },
    {
      "inputs": [
        {
          "internalType": "address",
          "name": "sender",
          "type": "address"
        },
        {
          "internalType": "uint256",
          "name": "tokenId",
          "type": "uint256"
        },
        {
          "internalType": "address",
          "name": "owner",
          "type": "address"
        }
      ],
      "name": "ERC721IncorrectOwner",
      "type": "error"
    },
    {
      "inputs": [
        {
          "internalType": "address",
          "name": "operator",
          "type": "address"
        },
        {
          "internalType": "uint256",
          "name": "tokenId",
          "type": "uint256"
        }
      ],
      "name": "ERC721InsufficientApproval",
      "type": "error"
    },
    {
      "inputs": [
        {
          "internalType": "address",
          "name": "approver",
          "type": "address"
        }
      ],
      "name": "ERC721InvalidApprover",
      "type": "error"
    },
    {
      "inputs": [
        {
          "internalType": "address",
          "name": "operator",
          "type": "address"
        }
      ],
      "name": "ERC721InvalidOperator",
      "type": "error"
    },
    {
      "inputs": [
        {
          "internalType": "address",
          "name": "owner",
          "type": "address"
        }
      ],
      "name": "ERC721InvalidOwner",
      "type": "error"
    },
    {
      "inputs": [
        {
          "internalType": "address",
          "name": "receiver",
          "type": "address"
        }
      ],
      "name": "ERC721InvalidReceiver",
      "type": "error"
    },
    {
      "inputs": [
        {
          "internalType": "address",
          "name": "sender",
          "type": "address"
        }
      ],
      "name": "ERC721InvalidSender",
      "type": "error"
    },
    {
      "inputs": [
        {
          "internalType": "uint256",
          "name": "tokenId",
          "type": "uint256"
        }
      ],
      "name": "ERC721NonexistentToken",
      "type": "error"
    },
    {
      "inputs": [
        {
          "internalType": "address",
          "name": "owner",
          "type": "address"
        }
      ],
      "name": "OwnableInvalidOwner",
      "type": "error"
    },
    {
      "inputs": [
        {
          "internalType": "address",
          "name": "account",
          "type": "address"
        }
      ],
      "name": "OwnableUnauthorizedAccount",
      "type": "error"
    },
    {
      "anonymous": false,
      "inputs": [
        {
          "indexed": true,
          "internalType": "address",
          "name": "owner",
          "type": "address"
        },
        {
          "indexed": true,
          "internalType": "address",
          "name": "approved",
          "type": "address"
        },
        {
          "indexed": true,
          "internalType": "uint256",
          "name": "tokenId",
          "type": "uint256"
        }
      ],
      "name": "Approval",
      "type": "event"
    },
    {
      "anonymous": false,
      "inputs": [
        {
          "indexed": true,
          "internalType": "address",
          "name": "owner",
          "type": "address"
        },
        {
          "indexed": true,
          "internalType": "address",
          "name": "operator",
          "type": "address"
        },
        {
          "indexed": false,
          "internalType": "bool",
          "name": "approved",
          "type": "bool"
        }
      ],
      "name": "ApprovalForAll",
      "type": "event"
    },
    {
      "anonymous": false,
      "inputs": [
        {
          "indexed": false,
          "internalType": "uint256",
          "name": "_fromTokenId",
          "type": "uint256"
        },
        {
          "indexed": false,
          "internalType": "uint256",
          "name": "_toTokenId",
          "type": "uint256"
        }
      ],
      "name": "BatchMetadataUpdate",
      "type": "event"
    },
    {
      "anonymous": false,
      "inputs": [
        {
          "indexed": false,
          "internalType": "uint256",
          "name": "_tokenId",
          "type": "uint256"
        }
      ],
      "name": "MetadataUpdate",
      "type": "event"
    },
    {
      "anonymous": false,
      "inputs": [
        {
          "indexed": true,
          "internalType": "address",
          "name": "minter",
          "type": "address"
        },
        {
          "indexed": false,
          "internalType": "uint256",
          "name": "initialTokenId",
          "type": "uint256"
        },
        {
          "indexed": false,
          "internalType": "uint256",
          "name": "numNfts",
          "type": "uint256"
        }
      ],
      "name": "MintAuth",
      "type": "event"
    },
    {
      "anonymous": false,
      "inputs": [
        {
          "indexed": true,
          "internalType": "address",
          "name": "previousOwner",
          "type": "address"
        },
        {
          "indexed": true,
          "internalType": "address",
          "name": "newOwner",
          "type": "address"
        }
      ],
      "name": "OwnershipTransferred",
      "type": "event"
    },
    {
      "anonymous": false,
      "inputs": [
        {
          "indexed": true,
          "internalType": "address",
          "name": "from",
          "type": "address"
        },
        {
          "indexed": true,
          "internalType": "address",
          "name": "to",
          "type": "address"
        },
        {
          "indexed": true,
          "internalType": "uint256",
          "name": "tokenId",
          "type": "uint256"
        }
      ],
      "name": "Transfer",
      "type": "event"
    },
    {
      "inputs": [
        {
          "internalType": "address",
          "name": "to",
          "type": "address"
        },
        {
          "internalType": "uint256",
          "name": "tokenId",
          "type": "uint256"
        }
      ],
      "name": "approve",
      "outputs": [],
      "stateMutability": "nonpayable",
      "type": "function"
    },
    {
      "inputs": [
        {
          "internalType": "address",
          "name": "owner",
          "type": "address"
        }
      ],
      "name": "balanceOf",
      "outputs": [
        {
          "internalType": "uint256",
          "name": "",
          "type": "uint256"
        }
      ],
      "stateMutability": "view",
      "type": "function"
    },
    {
      "inputs": [],
      "name": "baseURI",
      "outputs": [
        {
          "internalType": "string",
          "name": "",
          "type": "string"
        }
      ],
      "stateMutability": "view",
      "type": "function"
    },
    {
      "inputs": [
        {
          "internalType": "uint256",
          "name": "_newPrice",
          "type": "uint256"
        }
      ],
      "name": "changePrice",
      "outputs": [],
      "stateMutability": "nonpayable",
      "type": "function"
    },
    {
      "inputs": [
        {
          "internalType": "uint256",
          "name": "tokenId",
          "type": "uint256"
        }
      ],
      "name": "getApproved",
      "outputs": [
        {
          "internalType": "address",
          "name": "",
          "type": "address"
        }
      ],
      "stateMutability": "view",
      "type": "function"
    },
    {
      "inputs": [
        {
          "internalType": "address",
          "name": "owner",
          "type": "address"
        },
        {
          "internalType": "address",
          "name": "operator",
          "type": "address"
        }
      ],
      "name": "isApprovedForAll",
      "outputs": [
        {
          "internalType": "bool",
          "name": "",
          "type": "bool"
        }
      ],
      "stateMutability": "view",
      "type": "function"
    },
    {
      "inputs": [],
      "name": "maxBatch",
      "outputs": [
        {
          "internalType": "uint256",
          "name": "",
          "type": "uint256"
        }
      ],
      "stateMutability": "view",
      "type": "function"
    },
    {
      "inputs": [],
      "name": "maxNfts",
      "outputs": [
        {
          "internalType": "uint256",
          "name": "",
          "type": "uint256"
        }
      ],
      "stateMutability": "view",
      "type": "function"
    },
    {
      "inputs": [
        {
          "internalType": "uint256",
          "name": "_numNfts",
          "type": "uint256"
        }
      ],
      "name": "mintNfts",
      "outputs": [],
      "stateMutability": "payable",
      "type": "function"
    },
    {
      "inputs": [],
      "name": "name",
      "outputs": [
        {
          "internalType": "string",
          "name": "",
          "type": "string"
        }
      ],
      "stateMutability": "view",
      "type": "function"
    },
    {
      "inputs": [],
      "name": "owner",
      "outputs": [
        {
          "internalType": "address",
          "name": "",
          "type": "address"
        }
      ],
      "stateMutability": "view",
      "type": "function"
    },
    {
      "inputs": [
        {
          "internalType": "uint256",
          "name": "tokenId",
          "type": "uint256"
        }
      ],
      "name": "ownerOf",
      "outputs": [
        {
          "internalType": "address",
          "name": "",
          "type": "address"
        }
      ],
      "stateMutability": "view",
      "type": "function"
    },
    {
      "inputs": [],
      "name": "price",
      "outputs": [
        {
          "internalType": "uint256",
          "name": "",
          "type": "uint256"
        }
      ],
      "stateMutability": "view",
      "type": "function"
    },
    {
      "inputs": [],
      "name": "renounceOwnership",
      "outputs": [],
      "stateMutability": "nonpayable",
      "type": "function"
    },
    {
      "inputs": [
        {
          "internalType": "address",
          "name": "from",
          "type": "address"
        },
        {
          "internalType": "address",
          "name": "to",
          "type": "address"
        },
        {
          "internalType": "uint256",
          "name": "tokenId",
          "type": "uint256"
        }
      ],
      "name": "safeTransferFrom",
      "outputs": [],
      "stateMutability": "nonpayable",
      "type": "function"
    },
    {
      "inputs": [
        {
          "internalType": "address",
          "name": "from",
          "type": "address"
        },
        {
          "internalType": "address",
          "name": "to",
          "type": "address"
        },
        {
          "internalType": "uint256",
          "name": "tokenId",
          "type": "uint256"
        },
        {
          "internalType": "bytes",
          "name": "data",
          "type": "bytes"
        }
      ],
      "name": "safeTransferFrom",
      "outputs": [],
      "stateMutability": "nonpayable",
      "type": "function"
    },
    {
      "inputs": [
        {
          "internalType": "address",
          "name": "operator",
          "type": "address"
        },
        {
          "internalType": "bool",
          "name": "approved",
          "type": "bool"
        }
      ],
      "name": "setApprovalForAll",
      "outputs": [],
      "stateMutability": "nonpayable",
      "type": "function"
    },
    {
      "inputs": [
        {
          "internalType": "string",
          "name": "_newURI",
          "type": "string"
        }
      ],
      "name": "setBaseURI",
      "outputs": [],
      "stateMutability": "nonpayable",
      "type": "function"
    },
    {
      "inputs": [
        {
          "internalType": "uint256",
          "name": "_tokenId",
          "type": "uint256"
        },
        {
          "internalType": "string",
          "name": "_tokenURI",
          "type": "string"
        }
      ],
      "name": "setTokenURI",
      "outputs": [],
      "stateMutability": "nonpayable",
      "type": "function"
    },
    {
      "inputs": [
        {
          "internalType": "bytes4",
          "name": "interfaceId",
          "type": "bytes4"
        }
      ],
      "name": "supportsInterface",
      "outputs": [
        {
          "internalType": "bool",
          "name": "",
          "type": "bool"
        }
      ],
      "stateMutability": "view",
      "type": "function"
    },
    {
      "inputs": [],
      "name": "symbol",
      "outputs": [
        {
          "internalType": "string",
          "name": "",
          "type": "string"
        }
      ],
      "stateMutability": "view",
      "type": "function"
    },
    {
      "inputs": [
        {
          "internalType": "uint256",
          "name": "tokenId",
          "type": "uint256"
        }
      ],
      "name": "tokenURI",
      "outputs": [
        {
          "internalType": "string",
          "name": "",
          "type": "string"
        }
      ],
      "stateMutability": "view",
      "type": "function"
    },
    {
      "inputs": [],
      "name": "totalNfts",
      "outputs": [
        {
          "internalType": "uint256",
          "name": "",
          "type": "uint256"
        }
      ],
      "stateMutability": "view",
      "type": "function"
    },
    {
      "inputs": [],
      "name": "totalSupply",
      "outputs": [
        {
          "internalType": "uint256",
          "name": "",
          "type": "uint256"
        }
      ],
      "stateMutability": "view",
      "type": "function"
    },
    {
      "inputs": [
        {
          "internalType": "address",
          "name": "from",
          "type": "address"
        },
        {
          "internalType": "address",
          "name": "to",
          "type": "address"
        },
        {
          "internalType": "uint256",
          "name": "tokenId",
          "type": "uint256"
        }
      ],
      "name": "transferFrom",
      "outputs": [],
      "stateMutability": "nonpayable",
      "type": "function"
    },
    {
      "inputs": [
        {
          "internalType": "address",
          "name": "newOwner",
          "type": "address"
        }
      ],
      "name": "transferOwnership",
      "outputs": [],
      "stateMutability": "nonpayable",
      "type": "function"
    }
  ],
  "bytecode": "0x6080604052620186a06009556005600a55655af3107a4000600b553480156200002757600080fd5b5060405162001cba38038062001cba8339810160408190526200004a91620001d7565b33838360006200005b8382620002f7565b5060016200006a8282620002f7565b5050506001600160a01b0381166200009c57604051631e4fbdf760e01b81526000600482015260240160405180910390fd5b620000a781620000c0565b50600c620000b68282620002f7565b50505050620003c3565b600780546001600160a01b038381166001600160a01b0319831681179093556040519116919082907f8be0079c531659141344cd1fd0a4f28419497f9722a3daafe3b4186f6b6457e090600090a35050565b634e487b7160e01b600052604160045260246000fd5b600082601f8301126200013a57600080fd5b81516001600160401b038082111562000157576200015762000112565b604051601f8301601f19908116603f0116810190828211818310171562000182576200018262000112565b816040528381526020925086838588010111156200019f57600080fd5b600091505b83821015620001c35785820183015181830184015290820190620001a4565b600093810190920192909252949350505050565b600080600060608486031215620001ed57600080fd5b83516001600160401b03808211156200020557600080fd5b620002138783880162000128565b945060208601519150808211156200022a57600080fd5b620002388783880162000128565b935060408601519150808211156200024f57600080fd5b506200025e8682870162000128565b9150509250925092565b600181811c908216806200027d57607f821691505b6020821081036200029e57634e487b7160e01b600052602260045260246000fd5b50919050565b601f821115620002f257600081815260208120601f850160051c81016020861015620002cd5750805b601f850160051c820191505b81811015620002ee57828155600101620002d9565b5050505b505050565b81516001600160401b0381111562000313576200031362000112565b6200032b8162000324845462000268565b84620002a4565b602080601f8311600181146200036357600084156200034a5750858301515b600019600386901b1c1916600185901b178555620002ee565b600085815260208120601f198616915b82811015620003945788860151825594840194600190910190840162000373565b5085821015620003b35787850151600019600388901b60f8161c191681555b5050505050600190811b01905550565b6118e780620003d36000396000f3fe6080604052600436106101815760003560e01c806370a08231116100d1578063a22cb4651161008a578063c87b56dd11610064578063c87b56dd1461042f578063dba433fc1461044f578063e985e9c514610462578063f2fde38b1461048257600080fd5b8063a22cb465146103cf578063a2b40d19146103ef578063b88d4fde1461040f57600080fd5b806370a082311461033b578063715018a61461035b5780638da5cb5b1461037057806393f344c11461038e57806395d89b41146103a4578063a035b1fe146103b957600080fd5b806318160ddd1161013e57806355f804b31161011857806355f804b3146102d05780636352211e146102f057806367765b87146103105780636c0360eb1461032657600080fd5b806318160ddd1461027b57806323b872dd1461029057806342842e0e146102b057600080fd5b806301ffc9a71461018657806306fdde03146101bb578063081812fc146101dd578063095ea7b3146102155780630d4f9ddb14610237578063162094c41461025b575b600080fd5b34801561019257600080fd5b506101a66101a136600461133e565b6104a2565b60405190151581526020015b60405180910390f35b3480156101c757600080fd5b506101d06104cd565b6040516101b291906113ab565b3480156101e957600080fd5b506101fd6101f83660046113be565b61055f565b6040516001600160a01b0390911681526020016101b2565b34801561022157600080fd5b506102356102303660046113f3565b610588565b005b34801561024357600080fd5b5061024d60085481565b6040519081526020016101b2565b34801561026757600080fd5b506102356102763660046114c9565b610597565b34801561028757600080fd5b5060085461024d565b34801561029c57600080fd5b506102356102ab366004611510565b6105a9565b3480156102bc57600080fd5b506102356102cb366004611510565b610639565b3480156102dc57600080fd5b506102356102eb36600461154c565b610659565b3480156102fc57600080fd5b506101fd61030b3660046113be565b61066d565b34801561031c57600080fd5b5061024d600a5481565b34801561033257600080fd5b506101d0610678565b34801561034757600080fd5b5061024d610356366004611581565b610706565b34801561036757600080fd5b5061023561074e565b34801561037c57600080fd5b506007546001600160a01b03166101fd565b34801561039a57600080fd5b5061024d60095481565b3480156103b057600080fd5b506101d0610762565b3480156103c557600080fd5b5061024d600b5481565b3480156103db57600080fd5b506102356103ea36600461159c565b610771565b3480156103fb57600080fd5b5061023561040a3660046113be565b61077c565b34801561041b57600080fd5b5061023561042a3660046115d8565b610789565b34801561043b57600080fd5b506101d061044a3660046113be565b6107a0565b61023561045d3660046113be565b6108a4565b34801561046e57600080fd5b506101a661047d366004611654565b610a82565b34801561048e57600080fd5b5061023561049d366004611581565b610ab0565b60006001600160e01b03198216632483248360e11b14806104c757506104c782610aee565b92915050565b6060600080546104dc90611687565b80601f016020809104026020016040519081016040528092919081815260200182805461050890611687565b80156105555780601f1061052a57610100808354040283529160200191610555565b820191906000526020600020905b81548152906001019060200180831161053857829003601f168201915b5050505050905090565b600061056a82610b3e565b506000828152600460205260409020546001600160a01b03166104c7565b610593828233610b77565b5050565b61059f610b84565b6105938282610bb1565b6001600160a01b0382166105d857604051633250574960e11b8152600060048201526024015b60405180910390fd5b60006105e5838333610c01565b9050836001600160a01b0316816001600160a01b031614610633576040516364283d7b60e01b81526001600160a01b03808616600483015260248201849052821660448201526064016105cf565b50505050565b61065483838360405180602001604052806000815250610789565b505050565b610661610b84565b600c610593828261170f565b60006104c782610b3e565b600c805461068590611687565b80601f01602080910402602001604051908101604052809291908181526020018280546106b190611687565b80156106fe5780601f106106d3576101008083540402835291602001916106fe565b820191906000526020600020905b8154815290600101906020018083116106e157829003601f168201915b505050505081565b60006001600160a01b038216610732576040516322718ad960e21b8152600060048201526024016105cf565b506001600160a01b031660009081526003602052604090205490565b610756610b84565b6107606000610cfa565b565b6060600180546104dc90611687565b610593338383610d4c565b610784610b84565b600b55565b6107948484846105a9565b61063384848484610deb565b60606107ab82610b3e565b50600082815260066020526040812080546107c590611687565b80601f01602080910402602001604051908101604052809291908181526020018280546107f190611687565b801561083e5780601f106108135761010080835404028352916020019161083e565b820191906000526020600020905b81548152906001019060200180831161082157829003601f168201915b50505050509050600061084f610f14565b90508051600003610861575092915050565b81511561089357808260405160200161087b9291906117cf565b60405160208183030381529060405292505050919050565b61089c84610f23565b949350505050565b6000811180156108b65750600a548111155b6109195760405162461bcd60e51b815260206004820152602e60248201527f6d757374206d696e742061206d696e696d756d206f66203120616e64206d617860448201526d696d756d206f662035204e46547360901b60648201526084016105cf565b6009548160085461092a9190611814565b111561096d5760405162461bcd60e51b81526020600482015260126024820152711b585e081cdd5c1c1b1e481c995858da195960721b60448201526064016105cf565b600b5461097a9082611827565b34146109ba5760405162461bcd60e51b815260206004820152600f60248201526e696e636f727265637420707269636560881b60448201526064016105cf565b6007546040516001600160a01b03909116903480156108fc02916000818181858888f193505050501580156109f3573d6000803e3d6000fd5b5060085433907f76ba2656e1e5dcb306e5486f5e07dfd694e175f634e585977b9052699a5a13c090610a26906001611814565b60408051918252602082018590520160405180910390a260005b8181101561059357610a703360088054906000610a5c8361183e565b90915550610a6b906001611814565b610f8b565b80610a7a8161183e565b915050610a40565b6001600160a01b03918216600090815260056020908152604080832093909416825291909152205460ff1690565b610ab8610b84565b6001600160a01b038116610ae257604051631e4fbdf760e01b8152600060048201526024016105cf565b610aeb81610cfa565b50565b60006001600160e01b031982166380ac58cd60e01b1480610b1f57506001600160e01b03198216635b5e139f60e01b145b806104c757506301ffc9a760e01b6001600160e01b03198316146104c7565b6000818152600260205260408120546001600160a01b0316806104c757604051637e27328960e01b8152600481018490526024016105cf565b6106548383836001610ff0565b6007546001600160a01b031633146107605760405163118cdaa760e01b81523360048201526024016105cf565b6000828152600660205260409020610bc9828261170f565b506040518281527ff8e1a15aba9398e019f0b49df1a4fde98ee17ae345cb5f6b5e2c27f5033e8ce79060200160405180910390a15050565b6000828152600260205260408120546001600160a01b0390811690831615610c2e57610c2e8184866110f6565b6001600160a01b03811615610c6c57610c4b600085600080610ff0565b6001600160a01b038116600090815260036020526040902080546000190190555b6001600160a01b03851615610c9b576001600160a01b0385166000908152600360205260409020805460010190555b60008481526002602052604080822080546001600160a01b0319166001600160a01b0389811691821790925591518793918516917fddf252ad1be2c89b69c2b068fc378daa952ba7f163c4a11628f55a4df523b3ef91a4949350505050565b600780546001600160a01b038381166001600160a01b0319831681179093556040519116919082907f8be0079c531659141344cd1fd0a4f28419497f9722a3daafe3b4186f6b6457e090600090a35050565b6001600160a01b038216610d7e57604051630b61174360e31b81526001600160a01b03831660048201526024016105cf565b6001600160a01b03838116600081815260056020908152604080832094871680845294825291829020805460ff191686151590811790915591519182527f17307eab39ab6107e8899845ad3d59bd9653f200f220920489ca2b5937696c31910160405180910390a3505050565b6001600160a01b0383163b1561063357604051630a85bd0160e11b81526001600160a01b0384169063150b7a0290610e2d903390889087908790600401611857565b6020604051808303816000875af1925050508015610e68575060408051601f3d908101601f19168201909252610e6591810190611894565b60015b610ed1573d808015610e96576040519150601f19603f3d011682016040523d82523d6000602084013e610e9b565b606091505b508051600003610ec957604051633250574960e11b81526001600160a01b03851660048201526024016105cf565b805181602001fd5b6001600160e01b03198116630a85bd0160e11b14610f0d57604051633250574960e11b81526001600160a01b03851660048201526024016105cf565b5050505050565b6060600c80546104dc90611687565b6060610f2e82610b3e565b506000610f39610f14565b90506000815111610f595760405180602001604052806000815250610f84565b80610f638461115a565b604051602001610f749291906117cf565b6040516020818303038152906040525b9392505050565b6001600160a01b038216610fb557604051633250574960e11b8152600060048201526024016105cf565b6000610fc383836000610c01565b90506001600160a01b03811615610654576040516339e3563760e11b8152600060048201526024016105cf565b808061100457506001600160a01b03821615155b156110c657600061101484610b3e565b90506001600160a01b038316158015906110405750826001600160a01b0316816001600160a01b031614155b801561105357506110518184610a82565b155b1561107c5760405163a9fbf51f60e01b81526001600160a01b03841660048201526024016105cf565b81156110c45783856001600160a01b0316826001600160a01b03167f8c5be1e5ebec7d5bd14f71427d1e84f3dd0314c0f7b2291e5b200ac8c7c3b92560405160405180910390a45b505b5050600090815260046020526040902080546001600160a01b0319166001600160a01b0392909216919091179055565b6111018383836111ed565b610654576001600160a01b03831661112f57604051637e27328960e01b8152600481018290526024016105cf565b60405163177e802f60e01b81526001600160a01b0383166004820152602481018290526044016105cf565b6060600061116783611250565b600101905060008167ffffffffffffffff8111156111875761118761141d565b6040519080825280601f01601f1916602001820160405280156111b1576020820181803683370190505b5090508181016020015b600019016f181899199a1a9b1b9c1cb0b131b232b360811b600a86061a8153600a85049450846111bb57509392505050565b60006001600160a01b0383161580159061089c5750826001600160a01b0316846001600160a01b0316148061122757506112278484610a82565b8061089c5750506000908152600460205260409020546001600160a01b03908116911614919050565b60008072184f03e93ff9f4daa797ed6e38ed64bf6a1f0160401b831061128f5772184f03e93ff9f4daa797ed6e38ed64bf6a1f0160401b830492506040015b6d04ee2d6d415b85acef810000000083106112bb576d04ee2d6d415b85acef8100000000830492506020015b662386f26fc1000083106112d957662386f26fc10000830492506010015b6305f5e10083106112f1576305f5e100830492506008015b612710831061130557612710830492506004015b60648310611317576064830492506002015b600a83106104c75760010192915050565b6001600160e01b031981168114610aeb57600080fd5b60006020828403121561135057600080fd5b8135610f8481611328565b60005b8381101561137657818101518382015260200161135e565b50506000910152565b6000815180845261139781602086016020860161135b565b601f01601f19169290920160200192915050565b602081526000610f84602083018461137f565b6000602082840312156113d057600080fd5b5035919050565b80356001600160a01b03811681146113ee57600080fd5b919050565b6000806040838503121561140657600080fd5b61140f836113d7565b946020939093013593505050565b634e487b7160e01b600052604160045260246000fd5b600067ffffffffffffffff8084111561144e5761144e61141d565b604051601f8501601f19908116603f011681019082821181831017156114765761147661141d565b8160405280935085815286868601111561148f57600080fd5b858560208301376000602087830101525050509392505050565b600082601f8301126114ba57600080fd5b610f8483833560208501611433565b600080604083850312156114dc57600080fd5b82359150602083013567ffffffffffffffff8111156114fa57600080fd5b611506858286016114a9565b9150509250929050565b60008060006060848603121561152557600080fd5b61152e846113d7565b925061153c602085016113d7565b9150604084013590509250925092565b60006020828403121561155e57600080fd5b813567ffffffffffffffff81111561157557600080fd5b61089c848285016114a9565b60006020828403121561159357600080fd5b610f84826113d7565b600080604083850312156115af57600080fd5b6115b8836113d7565b9150602083013580151581146115cd57600080fd5b809150509250929050565b600080600080608085870312156115ee57600080fd5b6115f7856113d7565b9350611605602086016113d7565b925060408501359150606085013567ffffffffffffffff81111561162857600080fd5b8501601f8101871361163957600080fd5b61164887823560208401611433565b91505092959194509250565b6000806040838503121561166757600080fd5b611670836113d7565b915061167e602084016113d7565b90509250929050565b600181811c9082168061169b57607f821691505b6020821081036116bb57634e487b7160e01b600052602260045260246000fd5b50919050565b601f82111561065457600081815260208120601f850160051c810160208610156116e85750805b601f850160051c820191505b81811015611707578281556001016116f4565b505050505050565b815167ffffffffffffffff8111156117295761172961141d565b61173d816117378454611687565b846116c1565b602080601f831160018114611772576000841561175a5750858301515b600019600386901b1c1916600185901b178555611707565b600085815260208120601f198616915b828110156117a157888601518255948401946001909101908401611782565b50858210156117bf5787850151600019600388901b60f8161c191681555b5050505050600190811b01905550565b600083516117e181846020880161135b565b8351908301906117f581836020880161135b565b01949350505050565b634e487b7160e01b600052601160045260246000fd5b808201808211156104c7576104c76117fe565b80820281158282048414176104c7576104c76117fe565b600060018201611850576118506117fe565b5060010190565b6001600160a01b038581168252841660208201526040810183905260806060820181905260009061188a9083018461137f565b9695505050505050565b6000602082840312156118a657600080fd5b8151610f848161132856fea2646970667358221220642c496be0eeb8e6af23fe59d3dacda2a005a7a776daaad4b5a220eaa560c01564736f6c63430008140033",
  "linkReferences": {},
  "deployedLinkReferences": {}
}