{
  "_format": "hh-sol-artifact-1",
  "contractName": "Ecommerce",
  "sourceName": "contracts/Ecommerce.sol",
  "abi": [
    {
      "inputs": [
        {
          "internalType": "address",
          "name": "_recipient",
          "type": "address"
        }
      ],
      "stateMutability": "nonpayable",
      "type": "constructor"
    },
    {
      "inputs": [
        {
          "internalType": "address",
          "name": "owner",
          "type": "address"
        }
      ],
      "name": "OwnableInvalidOwner",
      "type": "error"
    },
    {
      "inputs": [
        {
          "internalType": "address",
          "name": "account",
          "type": "address"
        }
      ],
      "name": "OwnableUnauthorizedAccount",
      "type": "error"
    },
    {
      "anonymous": false,
      "inputs": [
        {
          "indexed": true,
          "internalType": "address",
          "name": "previousOwner",
          "type": "address"
        },
        {
          "indexed": true,
          "internalType": "address",
          "name": "newOwner",
          "type": "address"
        }
      ],
      "name": "OwnershipTransferred",
      "type": "event"
    },
    {
      "anonymous": false,
      "inputs": [
        {
          "indexed": true,
          "internalType": "address",
          "name": "buyer",
          "type": "address"
        },
        {
          "indexed": false,
          "internalType": "uint256",
          "name": "amount",
          "type": "uint256"
        },
        {
          "indexed": false,
          "internalType": "uint256",
          "name": "when",
          "type": "uint256"
        }
      ],
      "name": "Paid",
      "type": "event"
    },
    {
      "inputs": [],
      "name": "buy",
      "outputs": [],
      "stateMutability": "payable",
      "type": "function"
    },
    {
      "inputs": [],
      "name": "owner",
      "outputs": [
        {
          "internalType": "address",
          "name": "",
          "type": "address"
        }
      ],
      "stateMutability": "view",
      "type": "function"
    },
    {
      "inputs": [],
      "name": "recipient",
      "outputs": [
        {
          "internalType": "address payable",
          "name": "",
          "type": "address"
        }
      ],
      "stateMutability": "view",
      "type": "function"
    },
    {
      "inputs": [],
      "name": "renounceOwnership",
      "outputs": [],
      "stateMutability": "nonpayable",
      "type": "function"
    },
    {
      "inputs": [
        {
          "internalType": "address",
          "name": "newOwner",
          "type": "address"
        }
      ],
      "name": "transferOwnership",
      "outputs": [],
      "stateMutability": "nonpayable",
      "type": "function"
    },
    {
      "inputs": [
        {
          "internalType": "address payable",
          "name": "_newRecipient",
          "type": "address"
        }
      ],
      "name": "updateRecipient",
      "outputs": [],
      "stateMutability": "nonpayable",
      "type": "function"
    }
  ],
  "bytecode": "0x608060405234801561001057600080fd5b5060405161045038038061045083398101604081905261002f916100d4565b338061005557604051631e4fbdf760e01b81526000600482015260240160405180910390fd5b61005e81610084565b50600180546001600160a01b0319166001600160a01b0392909216919091179055610104565b600080546001600160a01b038381166001600160a01b0319831681178455604051919092169283917f8be0079c531659141344cd1fd0a4f28419497f9722a3daafe3b4186f6b6457e09190a35050565b6000602082840312156100e657600080fd5b81516001600160a01b03811681146100fd57600080fd5b9392505050565b61033d806101136000396000f3fe6080604052600436106100555760003560e01c806366d003ac1461005a578063715018a6146100965780638da5cb5b146100ad578063a6f2ae3a146100cb578063f2fde38b146100d3578063feec756c146100f3575b600080fd5b34801561006657600080fd5b5060015461007a906001600160a01b031681565b6040516001600160a01b03909116815260200160405180910390f35b3480156100a257600080fd5b506100ab610113565b005b3480156100b957600080fd5b506000546001600160a01b031661007a565b6100ab610127565b3480156100df57600080fd5b506100ab6100ee3660046102e3565b6101e9565b3480156100ff57600080fd5b506100ab61010e3660046102e3565b610227565b61011b610251565b610125600061027e565b565b600034116101735760405162461bcd60e51b815260206004820152601460248201527306d75737420706179206d6f7265207468616e20360641b60448201526064015b60405180910390fd5b6001546040516001600160a01b03909116903480156108fc02916000818181858888f193505050501580156101ac573d6000803e3d6000fd5b506040805134815242602082015233917fdf9a51129930649214df58f542322c245372c6f2fa6fc3c9b40d927c597cd230910160405180910390a2565b6101f1610251565b6001600160a01b03811661021b57604051631e4fbdf760e01b81526000600482015260240161016a565b6102248161027e565b50565b61022f610251565b600180546001600160a01b0319166001600160a01b0392909216919091179055565b6000546001600160a01b031633146101255760405163118cdaa760e01b815233600482015260240161016a565b600080546001600160a01b038381166001600160a01b0319831681178455604051919092169283917f8be0079c531659141344cd1fd0a4f28419497f9722a3daafe3b4186f6b6457e09190a35050565b6001600160a01b038116811461022457600080fd5b6000602082840312156102f557600080fd5b8135610300816102ce565b939250505056fea2646970667358221220e5fea100dad43d2e42982f3e288eb8100f323ff45f6db31110421484d7883d2d64736f6c63430008140033",
  "linkReferences": {},
  "deployedLinkReferences": {}
}